{
  "_format": "hh-sol-artifact-1",
  "contractName": "KingOfTheFools",
  "sourceName": "contracts/KingOfTheFools.sol",
  "abi": [
    {
      "inputs": [],
      "name": "deposit",
      "outputs": [],
      "stateMutability": "payable",
      "type": "function"
    },
    {
      "inputs": [],
      "name": "getKing",
      "outputs": [
        {
          "internalType": "address",
          "name": "",
          "type": "address"
        }
      ],
      "stateMutability": "view",
      "type": "function"
    },
    {
      "inputs": [],
      "name": "getKingBalance",
      "outputs": [
        {
          "internalType": "uint256",
          "name": "",
          "type": "uint256"
        }
      ],
      "stateMutability": "view",
      "type": "function"
    }
  ],
  "bytecode": "0x608060405260008060006101000a81548173ffffffffffffffffffffffffffffffffffffffff021916908373ffffffffffffffffffffffffffffffffffffffff160217905550600060015534801561005657600080fd5b50610706806100666000396000f3fe6080604052600436106100345760003560e01c80637920d80414610039578063d0e30db014610064578063dd7b37811461006e575b600080fd5b34801561004557600080fd5b5061004e610099565b60405161005b91906103a9565b60405180910390f35b61006c6100c2565b005b34801561007a57600080fd5b5061008361035e565b60405161009091906103dd565b60405180910390f35b60008060009054906101000a900473ffffffffffffffffffffffffffffffffffffffff16905090565b60003411610105576040517f08c379a00000000000000000000000000000000000000000000000000000000081526004016100fc90610455565b60405180910390fd5b60008054906101000a900473ffffffffffffffffffffffffffffffffffffffff1673ffffffffffffffffffffffffffffffffffffffff163373ffffffffffffffffffffffffffffffffffffffff1603610193576040517f08c379a000000000000000000000000000000000000000000000000000000000815260040161018a906104c1565b60405180910390fd5b6000600154036101e957336000806101000a81548173ffffffffffffffffffffffffffffffffffffffff021916908373ffffffffffffffffffffffffffffffffffffffff1602179055503460018190555061035c565b600260036001546101fa9190610510565b6102049190610581565b341015610246576040517f08c379a000000000000000000000000000000000000000000000000000000000815260040161023d906105fe565b60405180910390fd5b60008060009054906101000a900473ffffffffffffffffffffffffffffffffffffffff1673ffffffffffffffffffffffffffffffffffffffff163460405161028d9061064f565b60006040518083038185875af1925050503d80600081146102ca576040519150601f19603f3d011682016040523d82523d6000602084013e6102cf565b606091505b5050905080610313576040517f08c379a000000000000000000000000000000000000000000000000000000000815260040161030a906106b0565b60405180910390fd5b34600181905550336000806101000a81548173ffffffffffffffffffffffffffffffffffffffff021916908373ffffffffffffffffffffffffffffffffffffffff160217905550505b565b6000600154905090565b600073ffffffffffffffffffffffffffffffffffffffff82169050919050565b600061039382610368565b9050919050565b6103a381610388565b82525050565b60006020820190506103be600083018461039a565b92915050565b6000819050919050565b6103d7816103c4565b82525050565b60006020820190506103f260008301846103ce565b92915050565b600082825260208201905092915050565b7f416d6f756e74206d757374206265206d6f7265207468616e2030000000000000600082015250565b600061043f601a836103f8565b915061044a82610409565b602082019050919050565b6000602082019050818103600083015261046e81610432565b9050919050565b7f4e6f7420616c6c6f77656420746f206465706f73697420616761696e00000000600082015250565b60006104ab601c836103f8565b91506104b682610475565b602082019050919050565b600060208201905081810360008301526104da8161049e565b9050919050565b7f4e487b7100000000000000000000000000000000000000000000000000000000600052601160045260246000fd5b600061051b826103c4565b9150610526836103c4565b9250828202610534816103c4565b9150828204841483151761054b5761054a6104e1565b5b5092915050565b7f4e487b7100000000000000000000000000000000000000000000000000000000600052601260045260246000fd5b600061058c826103c4565b9150610597836103c4565b9250826105a7576105a6610552565b5b828204905092915050565b7f4e6f7420656e6f7567682065746820746f20626520746865206b696e67000000600082015250565b60006105e8601d836103f8565b91506105f3826105b2565b602082019050919050565b60006020820190508181036000830152610617816105db565b9050919050565b600081905092915050565b50565b600061063960008361061e565b915061064482610629565b600082019050919050565b600061065a8261062c565b9150819050919050565b7f4661696c656420746f2073656e64204574686572000000000000000000000000600082015250565b600061069a6014836103f8565b91506106a582610664565b602082019050919050565b600060208201905081810360008301526106c98161068d565b905091905056fea264697066735822122043a80a4b85e1d06494fb4700748bc40ae64b36678e27ec3d3edda81d2b87a08f64736f6c63430008110033",
  "linkReferences": {},
  "deployedLinkReferences": {}
}